{
  "_format": "hh-sol-artifact-1",
  "contractName": "InstantonAllocator",
  "sourceName": "contracts/InstantonAllocator.sol",
  "abi": [
    {
      "inputs": [
        {
          "internalType": "address",
          "name": "admin",
          "type": "address"
        },
        {
          "internalType": "address",
          "name": "_mirror",
          "type": "address"
        },
        {
          "internalType": "address",
          "name": "_amm",
          "type": "address"
        }
      ],
      "stateMutability": "nonpayable",
      "type": "constructor"
    },
    {
      "anonymous": false,
      "inputs": [
        {
          "indexed": false,
          "internalType": "int256",
          "name": "pRef",
          "type": "int256"
        },
        {
          "indexed": false,
          "internalType": "int256",
          "name": "bidBpsWad",
          "type": "int256"
        },
        {
          "indexed": false,
          "internalType": "int256",
          "name": "askBpsWad",
          "type": "int256"
        },
        {
          "indexed": false,
          "internalType": "uint256",
          "name": "sizeBaseHint",
          "type": "uint256"
        },
        {
          "indexed": false,
          "internalType": "bool",
          "name": "skewToReduceInventory",
          "type": "bool"
        }
      ],
      "name": "QuoteIntent",
      "type": "event"
    },
    {
      "anonymous": false,
      "inputs": [
        {
          "indexed": false,
          "internalType": "uint256",
          "name": "wAMM",
          "type": "uint256"
        },
        {
          "indexed": false,
          "internalType": "uint256",
          "name": "wOB",
          "type": "uint256"
        },
        {
          "indexed": false,
          "internalType": "uint256",
          "name": "wYield",
          "type": "uint256"
        },
        {
          "indexed": false,
          "internalType": "int256",
          "name": "actionScore",
          "type": "int256"
        },
        {
          "indexed": false,
          "internalType": "uint8",
          "name": "oracleTier",
          "type": "uint8"
        },
        {
          "indexed": false,
          "internalType": "bool",
          "name": "stale",
          "type": "bool"
        },
        {
          "indexed": false,
          "internalType": "bool",
          "name": "emergencyStale",
          "type": "bool"
        },
        {
          "indexed": false,
          "internalType": "int256",
          "name": "sigma",
          "type": "int256"
        },
        {
          "indexed": false,
          "internalType": "int256",
          "name": "imbalance",
          "type": "int256"
        },
        {
          "indexed": false,
          "internalType": "int256",
          "name": "qWad",
          "type": "int256"
        }
      ],
      "name": "RebalanceIntent",
      "type": "event"
    },
    {
      "anonymous": false,
      "inputs": [
        {
          "indexed": true,
          "internalType": "bytes32",
          "name": "role",
          "type": "bytes32"
        },
        {
          "indexed": true,
          "internalType": "bytes32",
          "name": "previousAdminRole",
          "type": "bytes32"
        },
        {
          "indexed": true,
          "internalType": "bytes32",
          "name": "newAdminRole",
          "type": "bytes32"
        }
      ],
      "name": "RoleAdminChanged",
      "type": "event"
    },
    {
      "anonymous": false,
      "inputs": [
        {
          "indexed": true,
          "internalType": "bytes32",
          "name": "role",
          "type": "bytes32"
        },
        {
          "indexed": true,
          "internalType": "address",
          "name": "account",
          "type": "address"
        },
        {
          "indexed": true,
          "internalType": "address",
          "name": "sender",
          "type": "address"
        }
      ],
      "name": "RoleGranted",
      "type": "event"
    },
    {
      "anonymous": false,
      "inputs": [
        {
          "indexed": true,
          "internalType": "bytes32",
          "name": "role",
          "type": "bytes32"
        },
        {
          "indexed": true,
          "internalType": "address",
          "name": "account",
          "type": "address"
        },
        {
          "indexed": true,
          "internalType": "address",
          "name": "sender",
          "type": "address"
        }
      ],
      "name": "RoleRevoked",
      "type": "event"
    },
    {
      "inputs": [],
      "name": "DEFAULT_ADMIN_ROLE",
      "outputs": [
        {
          "internalType": "bytes32",
          "name": "",
          "type": "bytes32"
        }
      ],
      "stateMutability": "view",
      "type": "function"
    },
    {
      "inputs": [],
      "name": "KEEPER_ROLE",
      "outputs": [
        {
          "internalType": "bytes32",
          "name": "",
          "type": "bytes32"
        }
      ],
      "stateMutability": "view",
      "type": "function"
    },
    {
      "inputs": [],
      "name": "STRATEGIST_ROLE",
      "outputs": [
        {
          "internalType": "bytes32",
          "name": "",
          "type": "bytes32"
        }
      ],
      "stateMutability": "view",
      "type": "function"
    },
    {
      "inputs": [],
      "name": "S_thresh",
      "outputs": [
        {
          "internalType": "int256",
          "name": "",
          "type": "int256"
        }
      ],
      "stateMutability": "view",
      "type": "function"
    },
    {
      "inputs": [],
      "name": "aInv",
      "outputs": [
        {
          "internalType": "int256",
          "name": "",
          "type": "int256"
        }
      ],
      "stateMutability": "view",
      "type": "function"
    },
    {
      "inputs": [],
      "name": "aOB",
      "outputs": [
        {
          "internalType": "int256",
          "name": "",
          "type": "int256"
        }
      ],
      "stateMutability": "view",
      "type": "function"
    },
    {
      "inputs": [],
      "name": "aTier",
      "outputs": [
        {
          "internalType": "int256",
          "name": "",
          "type": "int256"
        }
      ],
      "stateMutability": "view",
      "type": "function"
    },
    {
      "inputs": [],
      "name": "aY",
      "outputs": [
        {
          "internalType": "int256",
          "name": "",
          "type": "int256"
        }
      ],
      "stateMutability": "view",
      "type": "function"
    },
    {
      "inputs": [
        {
          "components": [
            {
              "internalType": "uint256",
              "name": "wAMM",
              "type": "uint256"
            },
            {
              "internalType": "uint256",
              "name": "wOB",
              "type": "uint256"
            },
            {
              "internalType": "uint256",
              "name": "wYield",
              "type": "uint256"
            }
          ],
          "internalType": "struct InstantonAllocator.Weights",
          "name": "target",
          "type": "tuple"
        }
      ],
      "name": "actionScore",
      "outputs": [
        {
          "internalType": "int256",
          "name": "S",
          "type": "int256"
        },
        {
          "components": [
            {
              "internalType": "int256",
              "name": "pRef",
              "type": "int256"
            },
            {
              "internalType": "int256",
              "name": "sigma",
              "type": "int256"
            },
            {
              "internalType": "int256",
              "name": "imbalance",
              "type": "int256"
            },
            {
              "internalType": "int256",
              "name": "deviation",
              "type": "int256"
            },
            {
              "internalType": "uint8",
              "name": "tier",
              "type": "uint8"
            },
            {
              "internalType": "bool",
              "name": "stale",
              "type": "bool"
            },
            {
              "internalType": "bool",
              "name": "emergencyStale",
              "type": "bool"
            },
            {
              "internalType": "uint256",
              "name": "lastUpdate",
              "type": "uint256"
            }
          ],
          "internalType": "struct MirrorState.MarketState",
          "name": "ms",
          "type": "tuple"
        },
        {
          "internalType": "int256",
          "name": "q",
          "type": "int256"
        }
      ],
      "stateMutability": "view",
      "type": "function"
    },
    {
      "inputs": [],
      "name": "amm",
      "outputs": [
        {
          "internalType": "contract MirrorAMM",
          "name": "",
          "type": "address"
        }
      ],
      "stateMutability": "view",
      "type": "function"
    },
    {
      "inputs": [],
      "name": "computeTarget",
      "outputs": [
        {
          "components": [
            {
              "internalType": "uint256",
              "name": "wAMM",
              "type": "uint256"
            },
            {
              "internalType": "uint256",
              "name": "wOB",
              "type": "uint256"
            },
            {
              "internalType": "uint256",
              "name": "wYield",
              "type": "uint256"
            }
          ],
          "internalType": "struct InstantonAllocator.Weights",
          "name": "target",
          "type": "tuple"
        },
        {
          "internalType": "bool",
          "name": "skewToReduceInventory",
          "type": "bool"
        }
      ],
      "stateMutability": "view",
      "type": "function"
    },
    {
      "inputs": [],
      "name": "current",
      "outputs": [
        {
          "internalType": "uint256",
          "name": "wAMM",
          "type": "uint256"
        },
        {
          "internalType": "uint256",
          "name": "wOB",
          "type": "uint256"
        },
        {
          "internalType": "uint256",
          "name": "wYield",
          "type": "uint256"
        }
      ],
      "stateMutability": "view",
      "type": "function"
    },
    {
      "inputs": [],
      "name": "epsW",
      "outputs": [
        {
          "internalType": "uint256",
          "name": "",
          "type": "uint256"
        }
      ],
      "stateMutability": "view",
      "type": "function"
    },
    {
      "inputs": [
        {
          "internalType": "bytes32",
          "name": "role",
          "type": "bytes32"
        }
      ],
      "name": "getRoleAdmin",
      "outputs": [
        {
          "internalType": "bytes32",
          "name": "",
          "type": "bytes32"
        }
      ],
      "stateMutability": "view",
      "type": "function"
    },
    {
      "inputs": [
        {
          "internalType": "bytes32",
          "name": "role",
          "type": "bytes32"
        },
        {
          "internalType": "address",
          "name": "account",
          "type": "address"
        }
      ],
      "name": "grantRole",
      "outputs": [],
      "stateMutability": "nonpayable",
      "type": "function"
    },
    {
      "inputs": [
        {
          "internalType": "bytes32",
          "name": "role",
          "type": "bytes32"
        },
        {
          "internalType": "address",
          "name": "account",
          "type": "address"
        }
      ],
      "name": "hasRole",
      "outputs": [
        {
          "internalType": "bool",
          "name": "",
          "type": "bool"
        }
      ],
      "stateMutability": "view",
      "type": "function"
    },
    {
      "inputs": [],
      "name": "lastRebalance",
      "outputs": [
        {
          "internalType": "uint256",
          "name": "",
          "type": "uint256"
        }
      ],
      "stateMutability": "view",
      "type": "function"
    },
    {
      "inputs": [],
      "name": "mirror",
      "outputs": [
        {
          "internalType": "contract MirrorState",
          "name": "",
          "type": "address"
        }
      ],
      "stateMutability": "view",
      "type": "function"
    },
    {
      "inputs": [],
      "name": "rebalanceCooldown",
      "outputs": [
        {
          "internalType": "uint256",
          "name": "",
          "type": "uint256"
        }
      ],
      "stateMutability": "view",
      "type": "function"
    },
    {
      "inputs": [
        {
          "internalType": "bytes32",
          "name": "role",
          "type": "bytes32"
        },
        {
          "internalType": "address",
          "name": "account",
          "type": "address"
        }
      ],
      "name": "renounceRole",
      "outputs": [],
      "stateMutability": "nonpayable",
      "type": "function"
    },
    {
      "inputs": [
        {
          "internalType": "bytes32",
          "name": "role",
          "type": "bytes32"
        },
        {
          "internalType": "address",
          "name": "account",
          "type": "address"
        }
      ],
      "name": "revokeRole",
      "outputs": [],
      "stateMutability": "nonpayable",
      "type": "function"
    },
    {
      "inputs": [
        {
          "internalType": "int256",
          "name": "_aOB",
          "type": "int256"
        },
        {
          "internalType": "int256",
          "name": "_aY",
          "type": "int256"
        },
        {
          "internalType": "int256",
          "name": "_aTier",
          "type": "int256"
        },
        {
          "internalType": "int256",
          "name": "_aInv",
          "type": "int256"
        }
      ],
      "name": "setActionWeights",
      "outputs": [],
      "stateMutability": "nonpayable",
      "type": "function"
    },
    {
      "inputs": [
        {
          "internalType": "uint256",
          "name": "cd",
          "type": "uint256"
        }
      ],
      "name": "setCooldown",
      "outputs": [],
      "stateMutability": "nonpayable",
      "type": "function"
    },
    {
      "inputs": [
        {
          "components": [
            {
              "internalType": "uint256",
              "name": "wAMM",
              "type": "uint256"
            },
            {
              "internalType": "uint256",
              "name": "wOB",
              "type": "uint256"
            },
            {
              "internalType": "uint256",
              "name": "wYield",
              "type": "uint256"
            }
          ],
          "internalType": "struct InstantonAllocator.Weights",
          "name": "w",
          "type": "tuple"
        }
      ],
      "name": "setCurrentWeights",
      "outputs": [],
      "stateMutability": "nonpayable",
      "type": "function"
    },
    {
      "inputs": [
        {
          "internalType": "int256",
          "name": "low",
          "type": "int256"
        },
        {
          "internalType": "int256",
          "name": "high",
          "type": "int256"
        }
      ],
      "name": "setSigmas",
      "outputs": [],
      "stateMutability": "nonpayable",
      "type": "function"
    },
    {
      "inputs": [
        {
          "internalType": "uint256",
          "name": "_epsW",
          "type": "uint256"
        },
        {
          "internalType": "int256",
          "name": "_S",
          "type": "int256"
        }
      ],
      "name": "setThresholds",
      "outputs": [],
      "stateMutability": "nonpayable",
      "type": "function"
    },
    {
      "inputs": [
        {
          "components": [
            {
              "internalType": "uint256",
              "name": "wAMM",
              "type": "uint256"
            },
            {
              "internalType": "uint256",
              "name": "wOB",
              "type": "uint256"
            },
            {
              "internalType": "uint256",
              "name": "wYield",
              "type": "uint256"
            }
          ],
          "internalType": "struct InstantonAllocator.Weights",
          "name": "target",
          "type": "tuple"
        }
      ],
      "name": "shouldInstanton",
      "outputs": [
        {
          "internalType": "bool",
          "name": "ok",
          "type": "bool"
        },
        {
          "internalType": "int256",
          "name": "S",
          "type": "int256"
        }
      ],
      "stateMutability": "view",
      "type": "function"
    },
    {
      "inputs": [],
      "name": "sigmaHigh",
      "outputs": [
        {
          "internalType": "int256",
          "name": "",
          "type": "int256"
        }
      ],
      "stateMutability": "view",
      "type": "function"
    },
    {
      "inputs": [],
      "name": "sigmaLow",
      "outputs": [
        {
          "internalType": "int256",
          "name": "",
          "type": "int256"
        }
      ],
      "stateMutability": "view",
      "type": "function"
    },
    {
      "inputs": [
        {
          "internalType": "bytes4",
          "name": "interfaceId",
          "type": "bytes4"
        }
      ],
      "name": "supportsInterface",
      "outputs": [
        {
          "internalType": "bool",
          "name": "",
          "type": "bool"
        }
      ],
      "stateMutability": "view",
      "type": "function"
    },
    {
      "inputs": [],
      "name": "trigger",
      "outputs": [],
      "stateMutability": "nonpayable",
      "type": "function"
    }
  ],
  "bytecode": "0x60806040523461032d57604051601f611b3d38819003918201601f19168301916001600160401b038311848410176101f55780849260609460405283398101031261032d5761004d81610332565b90610066604061005f60208401610332565b9201610332565b601e60065566b1a2bc2ec500006008819055670214e8348c4f0000600955670853a0d2313c0000600a5567058d15e176280000600b819055600c55670429d069189e0000600d55600e5566354a6ba7a18000600f556001600160a01b0383166000908152600080516020611b1d833981519152602052604090205490929060ff16156102e3575b6001600160a01b0381166000908152600080516020611add833981519152602052604090205460ff1615610277575b6001600160a01b0381166000908152600080516020611afd833981519152602052604090205460ff161561020b575b50600180546001600160a01b039283166001600160a01b03199182161790915560028054939092169216919091179055604051606081018181106001600160401b038211176101f5576702c68af0bb1400009160409182526707a1fe160277000081526703782dace9d90000602082015201526707a1fe16027700006003556703782dace9d900006004556702c68af0bb1400006005554260075560405161177690816103478239f35b634e487b7160e01b600052604160045260246000fd5b6001600160a01b03166000818152600080516020611afd83398151915260205260408120805460ff191660011790553391907ffc8737ab85eb45125971625a9ebdb75cc78e01d5c1fa80c4c6e5203f47bc4fab90600080516020611abd8339815191529080a43861014b565b6001600160a01b0381166000818152600080516020611add83398151915260205260408120805460ff191660011790553391907f17a8e30262c1f919c33056d877a3c22b95c2f5e4dac44683c1c2323cd79fbdb090600080516020611abd8339815191529080a461011c565b6001600160a01b0381166000818152600080516020611b1d83398151915260205260408120805460ff19166001179055339190600080516020611abd8339815191528180a46100ed565b600080fd5b51906001600160a01b038216820361032d5756fe608080604052600436101561001357600080fd5b60003560e01c90816301ffc9a714610841575080630fc09cea14610823578063106b9ca114610805578063248a9ca3146107d05780632765f35c146107b25780632a9439451461078b5780632f2ff15d146106d2578063364bc15a1461069757806336568abe14610606578063444d9172146105df5780634fc3f41a146105be57806372b45af9146105a05780637fec8d381461057f5780638411483b146105615780638e8765c4146105435780638fbe690f146104c057806391d148541461047f578063980a3510146103eb5780639a036871146103cd5780639f038ac9146103a65780639fa6a6e314610377578063a217fddf1461035b578063a378a32414610320578063b3de272d14610302578063d547741f146102c9578063e18253251461024c578063e4ae1b501461020e578063e53bd894146101e8578063e876dbe2146101ca578063e9b7f62e146101ac5763fd2e64d41461017457600080fd5b346101a75760803660031901126101a75761018d611218565b600435600a55602435600b55604435600c55606435600d55005b600080fd5b346101a75760003660031901126101a7576020600a54604051908152f35b346101a75760003660031901126101a7576020600954604051908152f35b346101a75760406102006101fb36610976565b611192565b825191151582526020820152f35b346101a75760003660031901126101a7576080610229610eed565b604080519280518452602081015160208501520151604083015215156060820152f35b346101a75761014060e061026761026236610976565b610c0c565b9192906040519384528051602085015260208101516040850152604081015160608501526060810151608085015260ff60808201511660a085015260a0810151151560c085015260c08101511515828501520151610100830152610120820152f35b346101a7576103006102da366108df565b906102fb6102f682600052600060205260016040600020015490565b6113c9565b611417565b005b346101a75760003660031901126101a7576020600654604051908152f35b346101a75760003660031901126101a75760206040517f17a8e30262c1f919c33056d877a3c22b95c2f5e4dac44683c1c2323cd79fbdb08152f35b346101a75760003660031901126101a757602060405160008152f35b346101a75760003660031901126101a75760606003546004546005549060405192835260208301526040820152f35b346101a75760403660031901126101a7576103bf611218565b600435600855602435600955005b346101a75760003660031901126101a7576020600b54604051908152f35b346101a75760603660031901126101a757610404611352565b6004356024356104148183610b5a565b91670de0b6b3a764000061042b6044358095610b5a565b0361043b57600355600455600555005b606460405162461bcd60e51b815260206004820152600860248201527f73756d20213d20310000000000000000000000000000000000000000000000006044820152fd5b346101a75761048d366108df565b9060005260006020526001600160a01b0360406000209116600052602052602060ff604060002054166040519015158152f35b346101a75760403660031901126101a7576024356004356104df611218565b600081138061053a575b156104f657600f55600e55005b606460405162461bcd60e51b815260206004820152600960248201527f626164207369676d6100000000000000000000000000000000000000000000006044820152fd5b508082136104e9565b346101a75760003660031901126101a7576020600c54604051908152f35b346101a75760003660031901126101a7576020600d54604051908152f35b346101a75760003660031901126101a757610598611352565b6103006109d8565b346101a75760003660031901126101a7576020600854604051908152f35b346101a75760203660031901126101a7576105d7611218565b600435600655005b346101a75760003660031901126101a75760206001600160a01b0360015416604051908152f35b346101a757610614366108df565b336001600160a01b0382160361062d5761030091611417565b608460405162461bcd60e51b815260206004820152602f60248201527f416363657373436f6e74726f6c3a2063616e206f6e6c792072656e6f756e636560448201527f20726f6c657320666f722073656c6600000000000000000000000000000000006064820152fd5b346101a75760003660031901126101a75760206040517ffc8737ab85eb45125971625a9ebdb75cc78e01d5c1fa80c4c6e5203f47bc4fab8152f35b346101a7576106e0366108df565b906106fc6102f682600052600060205260016040600020015490565b80600052600060205260406000206001600160a01b03831660005260205260ff604060002054161561072a57005b80600052600060205260406000206001600160a01b0383166000526020526040600020600160ff198254161790556001600160a01b03339216907f2f8788117e7eff1d82e926ec794901d17c78024a50270940304540a733656f0d600080a4005b346101a75760003660031901126101a75760206001600160a01b0360025416604051908152f35b346101a75760003660031901126101a7576020600e54604051908152f35b346101a75760203660031901126101a75760206107fd600435600052600060205260016040600020015490565b604051908152f35b346101a75760003660031901126101a7576020600754604051908152f35b346101a75760003660031901126101a7576020600f54604051908152f35b346101a75760203660031901126101a757600435907fffffffff0000000000000000000000000000000000000000000000000000000082168092036101a757817f7965db0b00000000000000000000000000000000000000000000000000000000602093149081156108b5575b5015158152f35b7f01ffc9a700000000000000000000000000000000000000000000000000000000915014836108ae565b60409060031901126101a757600435906024356001600160a01b03811681036101a75790565b6060810190811067ffffffffffffffff82111761092157604052565b634e487b7160e01b600052604160045260246000fd5b610100810190811067ffffffffffffffff82111761092157604052565b90601f8019910116810190811067ffffffffffffffff82111761092157604052565b60609060031901126101a75760405161098e81610905565b60043581526024356020820152604435604082015290565b919091600083820193841291129080158216911516176109c257565b634e487b7160e01b600052601160045260246000fd5b6109e0610eed565b6109e982611192565b9015610b5557826040917f22fe7379333f7b412eeb18a49f4ba0d0f430223bf207e8b4e814b47d625a669e610a2061014096610c0c565b9097915042600755845190602086019589888851920151608082019760ff89511660a084015115159160c0850151151593602086019d8e5196015196604051998a5260208a015260408901526060880152608087015260a086015260c085015260e0840152610100830152610120820152a166071afd498d00009251600e5412610b46575b5160ff16600214610b19575b51916103e88302928084046103e814901517156109c257670de0b6b3a764000060a0937ffa9202de1058bb22bba4a4eed9e7961347e2b43729eec141cbb34260aab2cba7955193604051948552806020860152604085015204606083015215156080820152a1565b90660e35fa931a00008101906000660e35fa931a0000831291129080158216911516176109c25790610ab1565b661550f7dca700009250610aa5565b505050565b919082018092116109c257565b519081151582036101a757565b90816101009103126101a75760405190610b8d82610937565b8051825260208101516020830152604081015160408301526060810151606083015260808101519060ff821682036101a75760e0916080840152610bd360a08201610b67565b60a0840152610be460c08201610b67565b60c0840152015160e082015290565b818103929160001380158285131691841216176109c257565b90600060e0604051610c1d81610937565b8281528260208201528260408201528260608201528260808201528260a08201528260c0820152015260046101006001600160a01b03600154166040519283809263d816574360e01b82525afa908115610e2d57600091610e39575b50806001600160a01b03600254169360405194635a18e93360e01b8652602086600481845afa928315610e2d57600093610df3575b6004965083670de0b6b3a7640000610d0581610cf7610ce46040610cd860208b01518f5490610bf3565b99015160055490610bf3565b97610cf1600a54916114a4565b90610e99565b0595610cf1600b54916114a4565b0590600260ff60806000950151161015610de9575b60206000946040519a8b809263b5a05c5d60e01b82525afa8015610dde578490610da5575b610d649697989950848113610d67575b5050610d5f90610d5f93946109a6565b6109a6565b92565b610d5f94610d99610d5f9493610cf1670de0b6b3a764000094610d94610d8f600d54946114a4565b610e75565b610ebc565b90500593819250610d4f565b506020893d602011610dd6575b81610dbf60209383610954565b81010312610dd257975196978897610d3f565b8380fd5b3d9150610db2565b6040513d86823e3d90fd5b600c549250610d1a565b92956020813d602011610e25575b81610e0e60209383610954565b81010312610e2157600496505192610cae565b8680fd5b3d9150610e01565b6040513d6000823e3d90fd5b610e5b91506101003d8111610e61575b610e538183610954565b810190610b74565b38610c79565b503d610e49565b919082039182116109c257565b90670de0b6b3a7640000820291808305670de0b6b3a764000014901517156109c257565b818102929160008212600160ff1b8214166109c25781840514901517156109c257565b8115610ed757600160ff1b81146000198314166109c2570590565b634e487b7160e01b600052601260045260246000fd5b600060408051610efc81610905565b828152826020820152015260046101006001600160a01b03600154166040519283809263d816574360e01b82525afa908115610e2d57600091611173575b506001600160a01b036002541690604051635a18e93360e01b8152602081600481865afa908115610e2d57600091611141575b506703782dace9d900006707a1fe16027700006020840151600e548113801561112f575b8015611122575b156110e45750505067011c37937e080000926706f05b59d3b20000610fca60406709b6e64a8ec60000955b01516114a4565b136110a4575b83670de0b6b3a764000003670de0b6b3a764000081116109c2576020611001610ffb86600494610e68565b946114a4565b926040519283809263b5a05c5d60e01b82525afa908115610e2d5760009161106f575b5060008113918261104f575b5050926040519261104084610905565b83526020830152604082015291565b67058d15e176280000925090610d9461106792610e75565b133880611030565b906020823d60201161109c575b8161108960209383610954565b8101031261109957505138611024565b80fd5b3d915061107c565b67016345785d8a000084116110d4575b670853a0d2313c0000831015610fd057670853a0d2313c00009250610fd0565b67016345785d8a000093506110b4565b600f9592959491945413611107575b610fca60406706f05b59d3b2000092610fc3565b6704db732547630000945067063eb89da4ed000093506110f3565b5060a08501511515610f98565b50600260ff6080870151161015610f91565b90506020813d60201161116b575b8161115c60209383610954565b810103126101a7575138610f6d565b3d915061114f565b61118c91506101003d8111610e6157610e538183610954565b38610f3a565b61119b81610c0c565b505080916111cc6111bb60406111c06111bb602086015160045490610bf3565b6114a4565b93015160055490610bf3565b9060085480911391821561120e575b50506111e960075442610e68565b600654111591826111f957505091565b6009541291508115611209575091565b905091565b13905038806111db565b3360009081527f870e8cc04c2b5dad3536f46ec34e70036e282aa0015655cc65a5ad6a2198ea5f602052604090205460ff161561125157565b611344604460376112613361153a565b61131c601161128f7f17a8e30262c1f919c33056d877a3c22b95c2f5e4dac44683c1c2323cd79fbdb0611687565b60405194859160208301957f416363657373436f6e74726f6c3a206163636f756e742000000000000000000087526112d081518092602086880191016114d4565b83017f206973206d697373696e6720726f6c65200000000000000000000000000000008382015261130b8251809360206048850191016114d4565b01010301601f198101845283610954565b60405193849262461bcd60e51b845260206004850152518092816024860152858501906114d4565b601f01601f19168101030190fd5b3360009081527f0363fc6b1c9d3a5e0ab0c2ddc08deb0f30108829db06e84f370d2858ffe78c46602052604090205460ff161561138b57565b6113446044603761139b3361153a565b61131c601161128f7ffc8737ab85eb45125971625a9ebdb75cc78e01d5c1fa80c4c6e5203f47bc4fab611687565b80600052600060205260406000206001600160a01b03331660005260205260ff60406000205416156113f85750565b604460376113449261131c601161128f6114113361153a565b93611687565b80600052600060205260406000206001600160a01b03831660005260205260ff60406000205416611446575050565b80600052600060205260406000206001600160a01b038316600052602052604060002060ff1981541690556001600160a01b03339216907ff6391f5c32d9c69d2a47ea670b442974b53935d1edc7fd64eb21e047a839171b600080a4565b60008082126114b1575090565b600160ff1b82146114c0570390565b80634e487b7160e01b602492526011600452fd5b60005b8381106114e75750506000910152565b81810151838201526020016114d7565b67ffffffffffffffff811161092157601f01601f191660200190565b908151811015611524570160200190565b634e487b7160e01b600052603260045260246000fd5b600090611547602a6114f7565b916115556040519384610954565b602a8352611563602a6114f7565b6020840190601f1901368237835115611673576030905382516001101561165f576078602184015350602960005b600182116115e65750506115a25790565b606460405162461bcd60e51b815260206004820152602060248201527f537472696e67733a20686578206c656e67746820696e73756666696369656e746044820152fd5b9091600f8116601081101561164b577f3031323334353637383961626364656600000000000000000000000000000000901a6116228486611513565b5360041c918015611637576000190190611591565b602482634e487b7160e01b81526011600452fd5b602483634e487b7160e01b81526032600452fd5b80634e487b7160e01b602492526032600452fd5b602482634e487b7160e01b81526032600452fd5b60009061169460426114f7565b916116a26040519384610954565b604283526116b060426114f7565b6020840190601f1901368237835115611673576030905382516001101561165f576078602184015350604160005b600182116116ef5750506115a25790565b9091600f8116601081101561164b577f3031323334353637383961626364656600000000000000000000000000000000901a61172b8486611513565b5360041c9180156116375760001901906116de56fea264697066735822122019ab96eccb2af0e301b14dc518a2e7a3008223148bbac98d7e186723bf89607364736f6c634300081c00332f8788117e7eff1d82e926ec794901d17c78024a50270940304540a733656f0d870e8cc04c2b5dad3536f46ec34e70036e282aa0015655cc65a5ad6a2198ea5f0363fc6b1c9d3a5e0ab0c2ddc08deb0f30108829db06e84f370d2858ffe78c46ad3228b676f7d3cd4284a5443f17f1962b36e491b30a40b2405849e597ba5fb5",
  "linkReferences": {},
  "deployedLinkReferences": {}
}