{
  "_format": "hh-sol-artifact-1",
  "contractName": "MirrorAMM",
  "sourceName": "contracts/MirrorAMM.sol",
  "abi": [
    {
      "inputs": [
        {
          "internalType": "address",
          "name": "_base",
          "type": "address"
        },
        {
          "internalType": "address",
          "name": "_quote",
          "type": "address"
        },
        {
          "internalType": "address",
          "name": "_mirror",
          "type": "address"
        }
      ],
      "stateMutability": "nonpayable",
      "type": "constructor"
    },
    {
      "anonymous": false,
      "inputs": [
        {
          "indexed": true,
          "internalType": "address",
          "name": "user",
          "type": "address"
        },
        {
          "indexed": false,
          "internalType": "bool",
          "name": "isBuyBase",
          "type": "bool"
        },
        {
          "indexed": false,
          "internalType": "uint256",
          "name": "baseAmount",
          "type": "uint256"
        },
        {
          "indexed": false,
          "internalType": "uint256",
          "name": "quoteAmount",
          "type": "uint256"
        }
      ],
      "name": "Swap",
      "type": "event"
    },
    {
      "inputs": [],
      "name": "base",
      "outputs": [
        {
          "internalType": "contract IERC20",
          "name": "",
          "type": "address"
        }
      ],
      "stateMutability": "view",
      "type": "function"
    },
    {
      "inputs": [
        {
          "internalType": "int256",
          "name": "_qWad",
          "type": "int256"
        }
      ],
      "name": "deltaWad",
      "outputs": [
        {
          "internalType": "int256",
          "name": "",
          "type": "int256"
        }
      ],
      "stateMutability": "view",
      "type": "function"
    },
    {
      "inputs": [],
      "name": "etaWad",
      "outputs": [
        {
          "internalType": "int256",
          "name": "",
          "type": "int256"
        }
      ],
      "stateMutability": "view",
      "type": "function"
    },
    {
      "inputs": [],
      "name": "maxTradeBaseWad",
      "outputs": [
        {
          "internalType": "int256",
          "name": "",
          "type": "int256"
        }
      ],
      "stateMutability": "view",
      "type": "function"
    },
    {
      "inputs": [
        {
          "internalType": "int256",
          "name": "_qWad",
          "type": "int256"
        }
      ],
      "name": "midPriceWad",
      "outputs": [
        {
          "internalType": "int256",
          "name": "",
          "type": "int256"
        }
      ],
      "stateMutability": "view",
      "type": "function"
    },
    {
      "inputs": [],
      "name": "mirror",
      "outputs": [
        {
          "internalType": "contract MirrorState",
          "name": "",
          "type": "address"
        }
      ],
      "stateMutability": "view",
      "type": "function"
    },
    {
      "inputs": [],
      "name": "qMaxWad",
      "outputs": [
        {
          "internalType": "int256",
          "name": "",
          "type": "int256"
        }
      ],
      "stateMutability": "view",
      "type": "function"
    },
    {
      "inputs": [],
      "name": "qWad",
      "outputs": [
        {
          "internalType": "int256",
          "name": "",
          "type": "int256"
        }
      ],
      "stateMutability": "view",
      "type": "function"
    },
    {
      "inputs": [],
      "name": "quote",
      "outputs": [
        {
          "internalType": "contract IERC20",
          "name": "",
          "type": "address"
        }
      ],
      "stateMutability": "view",
      "type": "function"
    },
    {
      "inputs": [
        {
          "internalType": "bool",
          "name": "isBuyBase",
          "type": "bool"
        },
        {
          "internalType": "int256",
          "name": "baseDeltaWad",
          "type": "int256"
        }
      ],
      "name": "quoteForBaseDelta",
      "outputs": [
        {
          "internalType": "int256",
          "name": "quoteDeltaWad",
          "type": "int256"
        }
      ],
      "stateMutability": "view",
      "type": "function"
    },
    {
      "inputs": [
        {
          "internalType": "int256",
          "name": "_etaWad",
          "type": "int256"
        }
      ],
      "name": "setEta",
      "outputs": [],
      "stateMutability": "nonpayable",
      "type": "function"
    },
    {
      "inputs": [
        {
          "internalType": "int256",
          "name": "_qMaxWad",
          "type": "int256"
        },
        {
          "internalType": "int256",
          "name": "_maxTradeBaseWad",
          "type": "int256"
        }
      ],
      "name": "setRiskCaps",
      "outputs": [],
      "stateMutability": "nonpayable",
      "type": "function"
    },
    {
      "inputs": [
        {
          "internalType": "uint256",
          "name": "baseOut",
          "type": "uint256"
        }
      ],
      "name": "swapBuyBaseExactOut",
      "outputs": [
        {
          "internalType": "uint256",
          "name": "quoteIn",
          "type": "uint256"
        }
      ],
      "stateMutability": "nonpayable",
      "type": "function"
    },
    {
      "inputs": [
        {
          "internalType": "uint256",
          "name": "baseIn",
          "type": "uint256"
        }
      ],
      "name": "swapSellBaseExactIn",
      "outputs": [
        {
          "internalType": "uint256",
          "name": "quoteOut",
          "type": "uint256"
        }
      ],
      "stateMutability": "nonpayable",
      "type": "function"
    }
  ],
  "bytecode": "0x60e03461010457601f61139338819003918201601f19168301916001600160401b0383118484101761010957808492606094604052833981010312610104576100478161011f565b9061006060406100596020840161011f565b920161011f565b60016000556802b5e3af16b18800006002819055683635c9adc5dea000006003556004556001600160a01b0392831660805290821660a0521660c05260405161125f9081610134823960805181818161052c0152818161069c0152610b16015260a05181818161048d015281816106ff0152610ab5015260c05181818160fc0152818161059701528181610928015281816109b401528181610f4e01526110160152f35b600080fd5b634e487b7160e01b600052604160045260246000fd5b51906001600160a01b03821682036101045756fe608080604052600436101561001357600080fd5b600090813560e01c90816304b2ce4614610d41575080631a34935414610d2357806329fc08031461096d57806338b93cee1461094c578063444d9172146109085780634eced96a146105505780635001f3b51461050c5780635a18e933146104ee57806374a7b50f146104cf57806384c6aea2146104b1578063999b93af1461046d578063a5d2a26f1461044e578063b5a05c5d146104305763d060c50e146100bb57600080fd5b3461042d57604036600319011261042d57600435801515810361042b5760243591808313156103e75760045483136103a357604051632c11184f60e11b81527f00000000000000000000000000000000000000000000000000000000000000006001600160a01b0316608082600481845afa80156102ad5783928491610340575b506102fc57600360ff831610156102b85760606004916040519283809263309bbc6d60e01b82525afa9081156102ad579061017f9291849161027b575b506111d1565b91600154938160001461026b576101968186610eaf565b935b600354808613159081610258575b5015610214576101cc60026101c6670de0b6b3a764000097602099610ef9565b05610fe0565b92156101fb576101e96101ef936101e38793610ec8565b90610de3565b05610de3565b9050055b604051908152f35b6101e961020c936101e38793610e7c565b9050056101f3565b606460405162461bcd60e51b815260206004820152600d60248201527f696e76656e746f727920636170000000000000000000000000000000000000006044820152fd5b61026291506110ac565b851215386101a6565b6102758186610ef9565b93610198565b61029d915060603d6060116102a6575b6102958183610e37565b810190610f15565b91505038610179565b503d61028b565b6040513d85823e3d90fd5b606460405162461bcd60e51b815260206004820152601960248201527f6f7261636c6520646576696174696f6e20637269746963616c000000000000006044820152fd5b606460405162461bcd60e51b815260206004820152601660248201527f6f7261636c6520656d657267656e6379207374616c65000000000000000000006044820152fd5b9250506080823d60801161039b575b8161035c60809383610e37565b810103126103975760208201519160ff8316830361039357606081610386604061038d9401610e6f565b5001610e6f565b3861013c565b8380fd5b8280fd5b3d915061034f565b606460405162461bcd60e51b815260206004820152600d60248201527f747261646520746f6f20626967000000000000000000000000000000000000006044820152fd5b606460405162461bcd60e51b815260206004820152600b60248201527f6261736544656c74613d300000000000000000000000000000000000000000006044820152fd5b505b80fd5b503461042d578060031936011261042d576020600354604051908152f35b503461042d57602036600319011261042d5760206101f3600435610fe0565b503461042d578060031936011261042d5760206040516001600160a01b037f0000000000000000000000000000000000000000000000000000000000000000168152f35b503461042d578060031936011261042d576020600254604051908152f35b503461042d57602036600319011261042d5760206101f3600435610f30565b503461042d578060031936011261042d576020600154604051908152f35b503461042d578060031936011261042d5760206040516001600160a01b037f0000000000000000000000000000000000000000000000000000000000000000168152f35b503461042d57602036600319011261042d5760043561056d6110bd565b61057681610da9565b91808313156103e75760045483136103a357604051632c11184f60e11b81527f00000000000000000000000000000000000000000000000000000000000000006001600160a01b0316608082600481845afa80156102ad57839284916108b4575b506102fc57600360ff831610156102b85760606004916040519283809263309bbc6d60e01b82525afa9081156102ad57906106199291849161027b57506111d1565b90600154906106288583610ef9565b6003548082131590816108a1575b501561021457670de0b6b3a76400006101e9610669936101e3839761066260026101c68d98889b610ef9565b9250610e7c565b6040516323b872dd60e01b81523360048201523060248201526044810185905291900591909105919060208160648160007f00000000000000000000000000000000000000000000000000000000000000006001600160a01b03165af190811561081757600091610867575b50156108235760405163a9059cbb60e01b81523360048201526024810183905260208160448160007f00000000000000000000000000000000000000000000000000000000000000006001600160a01b03165af1908115610817576000916107d8575b50156107945761074c602093600154610ef9565b6001556040519060008252838201528160408201527fbfd50a04f1e6e4aee344f5d0e7f15d74d0dbb58cd1f711daa6463094ca9508cd60603392a26001600055604051908152f35b606460405162461bcd60e51b815260206004820152600e60248201527f71756f7465206f7574206661696c0000000000000000000000000000000000006044820152fd5b90506020813d60201161080f575b816107f360209383610e37565b8101031261080a5761080490610e6f565b38610738565b600080fd5b3d91506107e6565b6040513d6000823e3d90fd5b606460405162461bcd60e51b815260206004820152600c60248201527f6261736520696e206661696c00000000000000000000000000000000000000006044820152fd5b90506020813d602011610899575b8161088260209383610e37565b8101031261080a5761089390610e6f565b386106d5565b3d9150610875565b6108ab91506110ac565b81121538610636565b9250506080823d608011610900575b816108d060809383610e37565b810103126103975760208201519160ff831683036103935760608161038660406108fa9401610e6f565b386105d7565b3d91506108c3565b503461042d578060031936011261042d5760206040516001600160a01b037f0000000000000000000000000000000000000000000000000000000000000000168152f35b503461042d57604036600319011261042d5760043560035560243560045580f35b503461042d57602036600319011261042d576004359061098b6110bd565b61099482610da9565b818113156103e75760045481136103a357604051632c11184f60e11b81527f00000000000000000000000000000000000000000000000000000000000000006001600160a01b0316608082600481845afa8015610cc05784928591610ccb575b506102fc57600360ff831610156102b85760606004916040519283809263309bbc6d60e01b82525afa908115610cc05790610a369291859161027b57506111d1565b600154610a438382610eaf565b90600354808313159081610cad575b50156102145783670de0b6b3a76400006101e981956101e3610a7d60026101c68699610a8399610ef9565b91610ec8565b6040516323b872dd60e01b815233600482015230602482015291900591909105604482018190529290602081606481857f00000000000000000000000000000000000000000000000000000000000000006001600160a01b03165af1908115610c24578291610c73575b5015610c2f5760405163a9059cbb60e01b815233600482015260248101859052602081604481857f00000000000000000000000000000000000000000000000000000000000000006001600160a01b03165af1908115610c24578291610bea575b5015610ba657602093610b646001938454610eaf565b835560405190838252858201528360408201527fbfd50a04f1e6e4aee344f5d0e7f15d74d0dbb58cd1f711daa6463094ca9508cd60603392a255604051908152f35b606460405162461bcd60e51b815260206004820152600d60248201527f62617365206f7574206661696c000000000000000000000000000000000000006044820152fd5b90506020813d602011610c1c575b81610c0560209383610e37565b8101031261042b57610c1690610e6f565b38610b4e565b3d9150610bf8565b6040513d84823e3d90fd5b606460405162461bcd60e51b815260206004820152600d60248201527f71756f746520696e206661696c000000000000000000000000000000000000006044820152fd5b90506020813d602011610ca5575b81610c8e60209383610e37565b8101031261042b57610c9f90610e6f565b38610aed565b3d9150610c81565b610cb791506110ac565b82121538610a52565b6040513d86823e3d90fd5b9250506080823d608011610d1b575b81610ce760809383610e37565b810103126103935760208201519160ff83168303610d17576060816103866040610d119401610e6f565b386109f4565b8480fd5b3d9150610cda565b503461042d578060031936011261042d576020600454604051908152f35b90503461042b57602036600319011261042b576004359082821315610d67575060025580f35b8062461bcd60e51b6064925260206004820152600560248201527f6574613d300000000000000000000000000000000000000000000000000000006044820152fd5b90670de0b6b3a7640000820291808305670de0b6b3a76400001490151715610dcd57565b634e487b7160e01b600052601160045260246000fd5b818102929160008212600160ff1b821416610dcd578184051490151715610dcd57565b8115610e2157600160ff1b8114600019831416610dcd570590565b634e487b7160e01b600052601260045260246000fd5b90601f8019910116810190811067ffffffffffffffff821117610e5957604052565b634e487b7160e01b600052604160045260246000fd5b5190811515820361080a57565b90600082670de0b6b3a7640000039212670de0b6b3a76400008312811690670de0b6b3a7640000841390151617610dcd57565b81810392916000138015828513169184121617610dcd57565b9081670de0b6b3a764000001918212600116610dcd57565b9081680176b344f2a78c000001918212600116610dcd57565b91909160008382019384129112908015821691151617610dcd57565b9081606091031261080a578051916040602083015192015190565b6040519063309bbc6d60e01b82526060826004816001600160a01b037f0000000000000000000000000000000000000000000000000000000000000000165afa91821561081757610fb0670de0b6b3a7640000610f9d84610fbb96610fb595600091610fbe575b50610de3565b0592610fab60025491610da9565b610e06565b611112565b90610ef9565b90565b610fd7915060603d6060116102a6576102958183610e37565b50905038610f97565b6040517f49eec4ca0000000000000000000000000000000000000000000000000000000081526020816004816001600160a01b037f0000000000000000000000000000000000000000000000000000000000000000165afa90811561081757600091611072575b5061106e906101e3611069611064670de0b6b3a764000095610f30565b611194565b610ec8565b0590565b90506020813d6020116110a4575b8161108d60209383610e37565b8101031261080a5751670de0b6b3a7640000611047565b3d9150611080565b600160ff1b8114610dcd5760000390565b6002600054146110ce576002600055565b606460405162461bcd60e51b815260206004820152601f60248201527f5265656e7472616e637947756172643a207265656e7472616e742063616c6c006044820152fd5b6729a2241af62c0000811215611187576729a2241af62bffff1981131561117957670de0b6b3a76400006111558161114a8480610de3565b05926101e384610ee0565b0581600902916009830503610dcd57610fab611173610fbb93610ee0565b91610da9565b50670de0b6b3a763ffff1990565b50670de0b6b3a764000090565b6706f05b59d3b1ffff1981126111c3576706f05b59d3b2000081136111b65790565b506706f05b59d3b2000090565b506706f05b59d3b1ffff1990565b9060ff16801561122557600181146112165760021461120057600581029080820560051490151715610dcd5790565b8060011b9080820560021490151715610dcd5790565b50610fbb906002810590610ef9565b509056fea2646970667358221220a119e3c9d2543c99134ba73e9a43fdf5de9c26374ff1b961d02759c44ba91dd364736f6c634300081c0033",
  "linkReferences": {},
  "deployedLinkReferences": {}
}