{
  "_format": "hh-sol-artifact-1",
  "contractName": "MirrorState",
  "sourceName": "contracts/MirrorState.sol",
  "abi": [
    {
      "inputs": [
        {
          "internalType": "address",
          "name": "admin",
          "type": "address"
        },
        {
          "internalType": "address",
          "name": "_l1read",
          "type": "address"
        },
        {
          "internalType": "uint32",
          "name": "_assetIndex",
          "type": "uint32"
        }
      ],
      "stateMutability": "nonpayable",
      "type": "constructor"
    },
    {
      "anonymous": false,
      "inputs": [
        {
          "indexed": false,
          "internalType": "address",
          "name": "l1read",
          "type": "address"
        },
        {
          "indexed": false,
          "internalType": "uint32",
          "name": "assetIndex",
          "type": "uint32"
        }
      ],
      "name": "LiveOracleConfigured",
      "type": "event"
    },
    {
      "anonymous": false,
      "inputs": [
        {
          "indexed": false,
          "internalType": "int256",
          "name": "pRef",
          "type": "int256"
        },
        {
          "indexed": false,
          "internalType": "int256",
          "name": "c",
          "type": "int256"
        },
        {
          "indexed": false,
          "internalType": "int256",
          "name": "lambda",
          "type": "int256"
        },
        {
          "indexed": false,
          "internalType": "int256",
          "name": "s",
          "type": "int256"
        },
        {
          "indexed": false,
          "internalType": "int256",
          "name": "sigma",
          "type": "int256"
        },
        {
          "indexed": false,
          "internalType": "int256",
          "name": "imbalance",
          "type": "int256"
        }
      ],
      "name": "OraclePushed",
      "type": "event"
    },
    {
      "anonymous": false,
      "inputs": [
        {
          "indexed": true,
          "internalType": "bytes32",
          "name": "role",
          "type": "bytes32"
        },
        {
          "indexed": true,
          "internalType": "bytes32",
          "name": "previousAdminRole",
          "type": "bytes32"
        },
        {
          "indexed": true,
          "internalType": "bytes32",
          "name": "newAdminRole",
          "type": "bytes32"
        }
      ],
      "name": "RoleAdminChanged",
      "type": "event"
    },
    {
      "anonymous": false,
      "inputs": [
        {
          "indexed": true,
          "internalType": "bytes32",
          "name": "role",
          "type": "bytes32"
        },
        {
          "indexed": true,
          "internalType": "address",
          "name": "account",
          "type": "address"
        },
        {
          "indexed": true,
          "internalType": "address",
          "name": "sender",
          "type": "address"
        }
      ],
      "name": "RoleGranted",
      "type": "event"
    },
    {
      "anonymous": false,
      "inputs": [
        {
          "indexed": true,
          "internalType": "bytes32",
          "name": "role",
          "type": "bytes32"
        },
        {
          "indexed": true,
          "internalType": "address",
          "name": "account",
          "type": "address"
        },
        {
          "indexed": true,
          "internalType": "address",
          "name": "sender",
          "type": "address"
        }
      ],
      "name": "RoleRevoked",
      "type": "event"
    },
    {
      "inputs": [],
      "name": "DEFAULT_ADMIN_ROLE",
      "outputs": [
        {
          "internalType": "bytes32",
          "name": "",
          "type": "bytes32"
        }
      ],
      "stateMutability": "view",
      "type": "function"
    },
    {
      "inputs": [],
      "name": "KEEPER_ROLE",
      "outputs": [
        {
          "internalType": "bytes32",
          "name": "",
          "type": "bytes32"
        }
      ],
      "stateMutability": "view",
      "type": "function"
    },
    {
      "inputs": [],
      "name": "STRATEGIST_ROLE",
      "outputs": [
        {
          "internalType": "bytes32",
          "name": "",
          "type": "bytes32"
        }
      ],
      "stateMutability": "view",
      "type": "function"
    },
    {
      "inputs": [],
      "name": "assetIndex",
      "outputs": [
        {
          "internalType": "uint32",
          "name": "",
          "type": "uint32"
        }
      ],
      "stateMutability": "view",
      "type": "function"
    },
    {
      "inputs": [],
      "name": "deviationApproxWad",
      "outputs": [
        {
          "internalType": "int256",
          "name": "d",
          "type": "int256"
        }
      ],
      "stateMutability": "view",
      "type": "function"
    },
    {
      "inputs": [],
      "name": "emergencyStaleSeconds",
      "outputs": [
        {
          "internalType": "uint256",
          "name": "",
          "type": "uint256"
        }
      ],
      "stateMutability": "view",
      "type": "function"
    },
    {
      "inputs": [],
      "name": "getMarketState",
      "outputs": [
        {
          "components": [
            {
              "internalType": "int256",
              "name": "pRef",
              "type": "int256"
            },
            {
              "internalType": "int256",
              "name": "sigma",
              "type": "int256"
            },
            {
              "internalType": "int256",
              "name": "imbalance",
              "type": "int256"
            },
            {
              "internalType": "int256",
              "name": "deviation",
              "type": "int256"
            },
            {
              "internalType": "uint8",
              "name": "tier",
              "type": "uint8"
            },
            {
              "internalType": "bool",
              "name": "stale",
              "type": "bool"
            },
            {
              "internalType": "bool",
              "name": "emergencyStale",
              "type": "bool"
            },
            {
              "internalType": "uint256",
              "name": "lastUpdate",
              "type": "uint256"
            }
          ],
          "internalType": "struct MirrorState.MarketState",
          "name": "ms",
          "type": "tuple"
        }
      ],
      "stateMutability": "view",
      "type": "function"
    },
    {
      "inputs": [
        {
          "internalType": "bytes32",
          "name": "role",
          "type": "bytes32"
        }
      ],
      "name": "getRoleAdmin",
      "outputs": [
        {
          "internalType": "bytes32",
          "name": "",
          "type": "bytes32"
        }
      ],
      "stateMutability": "view",
      "type": "function"
    },
    {
      "inputs": [
        {
          "internalType": "bytes32",
          "name": "role",
          "type": "bytes32"
        },
        {
          "internalType": "address",
          "name": "account",
          "type": "address"
        }
      ],
      "name": "grantRole",
      "outputs": [],
      "stateMutability": "nonpayable",
      "type": "function"
    },
    {
      "inputs": [
        {
          "internalType": "bytes32",
          "name": "role",
          "type": "bytes32"
        },
        {
          "internalType": "address",
          "name": "account",
          "type": "address"
        }
      ],
      "name": "hasRole",
      "outputs": [
        {
          "internalType": "bool",
          "name": "",
          "type": "bool"
        }
      ],
      "stateMutability": "view",
      "type": "function"
    },
    {
      "inputs": [],
      "name": "imbalance",
      "outputs": [
        {
          "internalType": "int256",
          "name": "",
          "type": "int256"
        }
      ],
      "stateMutability": "view",
      "type": "function"
    },
    {
      "inputs": [],
      "name": "l1read",
      "outputs": [
        {
          "internalType": "contract IL1Read",
          "name": "",
          "type": "address"
        }
      ],
      "stateMutability": "view",
      "type": "function"
    },
    {
      "inputs": [],
      "name": "lastUpdate",
      "outputs": [
        {
          "internalType": "uint256",
          "name": "",
          "type": "uint256"
        }
      ],
      "stateMutability": "view",
      "type": "function"
    },
    {
      "inputs": [],
      "name": "livePriceWad",
      "outputs": [
        {
          "internalType": "int256",
          "name": "",
          "type": "int256"
        }
      ],
      "stateMutability": "view",
      "type": "function"
    },
    {
      "inputs": [],
      "name": "oracleTier",
      "outputs": [
        {
          "internalType": "int256",
          "name": "d",
          "type": "int256"
        },
        {
          "internalType": "uint8",
          "name": "tier",
          "type": "uint8"
        },
        {
          "internalType": "bool",
          "name": "isStale",
          "type": "bool"
        },
        {
          "internalType": "bool",
          "name": "emergencyStale",
          "type": "bool"
        }
      ],
      "stateMutability": "view",
      "type": "function"
    },
    {
      "inputs": [],
      "name": "pRef",
      "outputs": [
        {
          "internalType": "int256",
          "name": "",
          "type": "int256"
        }
      ],
      "stateMutability": "view",
      "type": "function"
    },
    {
      "inputs": [
        {
          "components": [
            {
              "internalType": "int256",
              "name": "pRef",
              "type": "int256"
            },
            {
              "components": [
                {
                  "internalType": "int256",
                  "name": "c",
                  "type": "int256"
                },
                {
                  "internalType": "int256",
                  "name": "lambda",
                  "type": "int256"
                },
                {
                  "internalType": "int256",
                  "name": "s",
                  "type": "int256"
                }
              ],
              "internalType": "struct MirrorState.Theta",
              "name": "theta",
              "type": "tuple"
            },
            {
              "internalType": "int256",
              "name": "sigma",
              "type": "int256"
            },
            {
              "internalType": "int256",
              "name": "imbalance",
              "type": "int256"
            },
            {
              "internalType": "uint256",
              "name": "timestamp",
              "type": "uint256"
            }
          ],
          "internalType": "struct MirrorState.OracleUpdate",
          "name": "u",
          "type": "tuple"
        }
      ],
      "name": "pushUpdate",
      "outputs": [],
      "stateMutability": "nonpayable",
      "type": "function"
    },
    {
      "inputs": [
        {
          "internalType": "bytes32",
          "name": "role",
          "type": "bytes32"
        },
        {
          "internalType": "address",
          "name": "account",
          "type": "address"
        }
      ],
      "name": "renounceRole",
      "outputs": [],
      "stateMutability": "nonpayable",
      "type": "function"
    },
    {
      "inputs": [
        {
          "internalType": "bytes32",
          "name": "role",
          "type": "bytes32"
        },
        {
          "internalType": "address",
          "name": "account",
          "type": "address"
        }
      ],
      "name": "revokeRole",
      "outputs": [],
      "stateMutability": "nonpayable",
      "type": "function"
    },
    {
      "inputs": [
        {
          "internalType": "address",
          "name": "_l1read",
          "type": "address"
        },
        {
          "internalType": "uint32",
          "name": "_assetIndex",
          "type": "uint32"
        }
      ],
      "name": "setLiveOracle",
      "outputs": [],
      "stateMutability": "nonpayable",
      "type": "function"
    },
    {
      "inputs": [
        {
          "internalType": "uint256",
          "name": "_stale",
          "type": "uint256"
        },
        {
          "internalType": "uint256",
          "name": "_emergency",
          "type": "uint256"
        }
      ],
      "name": "setStaleness",
      "outputs": [],
      "stateMutability": "nonpayable",
      "type": "function"
    },
    {
      "inputs": [
        {
          "internalType": "int256",
          "name": "_tau1",
          "type": "int256"
        },
        {
          "internalType": "int256",
          "name": "_tau2",
          "type": "int256"
        },
        {
          "internalType": "int256",
          "name": "_tau3",
          "type": "int256"
        }
      ],
      "name": "setThresholds",
      "outputs": [],
      "stateMutability": "nonpayable",
      "type": "function"
    },
    {
      "inputs": [],
      "name": "sigma",
      "outputs": [
        {
          "internalType": "int256",
          "name": "",
          "type": "int256"
        }
      ],
      "stateMutability": "view",
      "type": "function"
    },
    {
      "inputs": [],
      "name": "staleSeconds",
      "outputs": [
        {
          "internalType": "uint256",
          "name": "",
          "type": "uint256"
        }
      ],
      "stateMutability": "view",
      "type": "function"
    },
    {
      "inputs": [
        {
          "internalType": "bytes4",
          "name": "interfaceId",
          "type": "bytes4"
        }
      ],
      "name": "supportsInterface",
      "outputs": [
        {
          "internalType": "bool",
          "name": "",
          "type": "bool"
        }
      ],
      "stateMutability": "view",
      "type": "function"
    },
    {
      "inputs": [],
      "name": "tau1",
      "outputs": [
        {
          "internalType": "int256",
          "name": "",
          "type": "int256"
        }
      ],
      "stateMutability": "view",
      "type": "function"
    },
    {
      "inputs": [],
      "name": "tau2",
      "outputs": [
        {
          "internalType": "int256",
          "name": "",
          "type": "int256"
        }
      ],
      "stateMutability": "view",
      "type": "function"
    },
    {
      "inputs": [],
      "name": "tau3",
      "outputs": [
        {
          "internalType": "int256",
          "name": "",
          "type": "int256"
        }
      ],
      "stateMutability": "view",
      "type": "function"
    },
    {
      "inputs": [],
      "name": "theta",
      "outputs": [
        {
          "internalType": "int256",
          "name": "c",
          "type": "int256"
        },
        {
          "internalType": "int256",
          "name": "lambda",
          "type": "int256"
        },
        {
          "internalType": "int256",
          "name": "s",
          "type": "int256"
        }
      ],
      "stateMutability": "view",
      "type": "function"
    }
  ],
  "bytecode": "0x6080346102a457601f6116a238819003918201601f19168301916001600160401b038311848410176102a9578084926060946040528339810103126102a457610047816102bf565b6040610055602084016102bf565b92015163ffffffff81168082036102a4576611c37937e0800060085566470de4df82000060095566b1a2bc2ec50000600a55603c600b556078600c556001600160a01b03831660009081527fad3228b676f7d3cd4284a5443f17f1962b36e491b30a40b2405849e597ba5fb5602052604090819020547f0938c0f12fa4e40197b4e1367373110d3366bef901df90f6654d1f537dd664969591949060ff1615610261575b600080516020611662833981519152600090815260208181528682206001600160a01b038416835290528590205460ff161561020d575b600080516020611682833981519152600090815260208181528682206001600160a01b038416835290528590205460ff16156101b5575b50600d80546001600160c01b0319166001600160a01b039290921691821760a09490941b63ffffffff60a01b169390931790925582519182526020820152a160405161136e90816102d48239f35b600080516020611682833981519152600081815260208181528782206001600160a01b0394909416808352939052868120805460ff19166001179055339291906000805160206116428339815191529080a438610167565b600080516020611662833981519152600081815260208181528782206001600160a01b0385168084529152878220805460ff19166001179055339290916000805160206116428339815191529080a4610130565b600080805260208181528682206001600160a01b0384168084529152868220805460ff1916600117905533916000805160206116428339815191528180a46100f9565b600080fd5b634e487b7160e01b600052604160045260246000fd5b51906001600160a01b03821682036102a45756fe608080604052600436101561001357600080fd5b60003560e01c90816301ffc9a714610c35575080631032549b14610c1757806310754f8214610bfc5780631f7000a514610be157806320f1fd3b14610bc3578063248a9ca314610b8e5780632f2ff15d14610ac7578063309bbc6d14610a98578063364bc15a14610a5d57806336568abe146109be5780633acaf5191461099757806349eec4ca14610979578063558ec934146108e15780635822309e146108a4578063804229c1146108865780638f5f32571461086857806391b08a25146107ad57806391d148541461075f5780639ffb5a32146106dd578063a217fddf146106c1578063a378a32414610686578063afdf31cd14610668578063c04637111461064a578063d547741f14610603578063d81657431461051d578063e07b098a146104f6578063edd31a6e1461019f578063f32228c0146101815763ff60ba461461015e57600080fd5b3461017c57600036600319011261017c576020600854604051908152f35b600080fd5b3461017c57600036600319011261017c576020600a54604051908152f35b3461017c5760e036600319011261017c573360009081527f0363fc6b1c9d3a5e0ab0c2ddc08deb0f30108829db06e84f370d2858ffe78c46602052604081205460ff16156103f55760c435601e81018091116103e157421161039d5760043581811315610359576044359066038d7ea4c6800082121580610347575b1561030357606435906601c6bf52634000821215806102f2575b156102ae577f54588f952ef42e5294adcae6865ee694fa56a62c934ceafc0fae0e9316847c3e9260c0928260045560243591826001556002556003556084358060055560a43591826006554260075560025460035491604051958652602086015260408501526060840152608083015260a0820152a180f35b606460405162461bcd60e51b815260206004820152600d60248201527f73707265616420626f756e6473000000000000000000000000000000000000006044820152fd5b5066b1a2bc2ec50000821315610235565b606460405162461bcd60e51b815260206004820152600d60248201527f6c616d62646120626f756e6473000000000000000000000000000000000000006044820152fd5b5067016345785d8a000082131561021b565b606460405162461bcd60e51b815260206004820152600660248201527f705265663d3000000000000000000000000000000000000000000000000000006044820152fd5b606460405162461bcd60e51b815260206004820152600e60248201527f75706461746520746f6f206f6c640000000000000000000000000000000000006044820152fd5b602482634e487b7160e01b81526011600452fd5b6104e86044603761040533611146565b6104c060116104337ffc8737ab85eb45125971625a9ebdb75cc78e01d5c1fa80c4c6e5203f47bc4fab61127f565b60405194859160208301957f416363657373436f6e74726f6c3a206163636f756e7420000000000000000000875261047481518092602086880191016110e0565b83017f206973206d697373696e6720726f6c6520000000000000000000000000000000838201526104af8251809360206048850191016110e0565b01010301601f198101845283610e25565b60405193849262461bcd60e51b845260206004850152518092816024860152858501906110e0565b601f01601f19168101030190fd5b3461017c57600036600319011261017c57602063ffffffff600d5460a01c16604051908152f35b3461017c57600036600319011261017c57600060e060405161053e81610df2565b8281528260208201528260408201528260608201528260808201528260a08201528260c08201520152610100610572610f39565b9060ff60049493945494600554946006546007549660e060405161059581610df2565b8a815260208101928352604081019384526060810194855286608082019616865260a08101971515885260c081019815158952019788526040519889525160208901525160408801525160608701525116608085015251151560a084015251151560c08301525160e0820152f35b3461017c57604036600319011261017c57610648600435610622610cd3565b9061064361063e82600052600060205260016040600020015490565b611005565b611053565b005b3461017c57600036600319011261017c576020600754604051908152f35b3461017c57600036600319011261017c576020600554604051908152f35b3461017c57600036600319011261017c5760206040517f17a8e30262c1f919c33056d877a3c22b95c2f5e4dac44683c1c2323cd79fbdb08152f35b3461017c57600036600319011261017c57602060405160008152f35b3461017c57604036600319011261017c576024356004356106fc610f8e565b80151580610756575b1561071257600b55600c55005b606460405162461bcd60e51b815260206004820152600d60248201527f626164207374616c656e657373000000000000000000000000000000000000006044820152fd5b50808211610705565b3461017c57604036600319011261017c57610778610cd3565b60043560005260006020526001600160a01b0360406000209116600052602052602060ff604060002054166040519015158152f35b3461017c57604036600319011261017c576004356001600160a01b03811680910361017c5760243563ffffffff81169182820361017c577f0938c0f12fa4e40197b4e1367373110d3366bef901df90f6654d1f537dd6649692604092610811610f8e565b827fffffffffffffffff00000000000000000000000000000000000000000000000077ffffffff0000000000000000000000000000000000000000600d549360a01b1692161717600d5582519182526020820152a1005b3461017c57600036600319011261017c576020600954604051908152f35b3461017c57600036600319011261017c576020600b54604051908152f35b3461017c57600036600319011261017c57608060ff6108c1610f39565b929390916040519485521660208401521515604083015215156060820152f35b3461017c57606036600319011261017c57604435602435600435610903610f8e565b6000811380610970575b80610967575b1561092357600855600955600a55005b606460405162461bcd60e51b815260206004820152600860248201527f62616420746175730000000000000000000000000000000000000000000000006044820152fd5b50828212610913565b5081811261090d565b3461017c57600036600319011261017c576020600454604051908152f35b3461017c57600036600319011261017c5760206001600160a01b03600d5416604051908152f35b3461017c57604036600319011261017c576109d7610cd3565b336001600160a01b038216036109f35761064890600435611053565b608460405162461bcd60e51b815260206004820152602f60248201527f416363657373436f6e74726f6c3a2063616e206f6e6c792072656e6f756e636560448201527f20726f6c657320666f722073656c6600000000000000000000000000000000006064820152fd5b3461017c57600036600319011261017c5760206040517ffc8737ab85eb45125971625a9ebdb75cc78e01d5c1fa80c4c6e5203f47bc4fab8152f35b3461017c57600036600319011261017c5760606001546002546003549060405192835260208301526040820152f35b3461017c57604036600319011261017c57600435610ae3610cd3565b90610aff61063e82600052600060205260016040600020015490565b80600052600060205260406000206001600160a01b03831660005260205260ff6040600020541615610b2d57005b80600052600060205260406000206001600160a01b0383166000526020526040600020600160ff198254161790556001600160a01b03339216907f2f8788117e7eff1d82e926ec794901d17c78024a50270940304540a733656f0d600080a4005b3461017c57602036600319011261017c576020610bbb600435600052600060205260016040600020015490565b604051908152f35b3461017c57600036600319011261017c576020600654604051908152f35b3461017c57600036600319011261017c576020610bbb610e5c565b3461017c57600036600319011261017c576020610bbb610ce9565b3461017c57600036600319011261017c576020600c54604051908152f35b3461017c57602036600319011261017c57600435907fffffffff00000000000000000000000000000000000000000000000000000000821680920361017c57817f7965db0b0000000000000000000000000000000000000000000000000000000060209314908115610ca9575b5015158152f35b7f01ffc9a70000000000000000000000000000000000000000000000000000000091501483610ca2565b602435906001600160a01b038216820361017c57565b610cf1610e5c565b6004549060008113801590610de7575b610dc157670de0b6b3a7640000810290808205670de0b6b3a76400001490151715610d95578115610dab57600160ff1b8114600019831416610d955705670de0b6b3a763ffff19810190808213600116610d9557600090818312610d6457505090565b909291600160ff1b14610d8157670de0b6b3a76400009192030190565b602483634e487b7160e01b81526011600452fd5b634e487b7160e01b600052601160045260246000fd5b634e487b7160e01b600052601260045260246000fd5b50507f7fffffffffffffffffffffffffffffffffffffffffffffffffffffffffffffff90565b506000821315610d01565b610100810190811067ffffffffffffffff821117610e0f57604052565b634e487b7160e01b600052604160045260246000fd5b90601f8019910116810190811067ffffffffffffffff821117610e0f57604052565b519067ffffffffffffffff8216820361017c57565b6001600160a01b036040600d5460248251809481937f4e45fa2700000000000000000000000000000000000000000000000000000000835263ffffffff8160a01c166004840152165afa8015610f2d57600090610ede575b67ffffffffffffffff9150166402540be4008102908082056402540be4001490151715610d955790565b506040813d604011610f25575b81610ef860409383610e25565b8101031261017c5780610f1f6020610f1867ffffffffffffffff94610e47565b9201610e47565b50610eb4565b3d9150610eeb565b6040513d6000823e3d90fd5b600754420390428211610d9557600b54821191600c541091610f59610ce9565b926008548412600014610f6b57600092565b600954841215610f7a57600192565b600a54841215610f8957600292565b600392565b3360009081527f870e8cc04c2b5dad3536f46ec34e70036e282aa0015655cc65a5ad6a2198ea5f602052604090205460ff1615610fc757565b6104e860446037610fd733611146565b6104c060116104337f17a8e30262c1f919c33056d877a3c22b95c2f5e4dac44683c1c2323cd79fbdb061127f565b80600052600060205260406000206001600160a01b03331660005260205260ff60406000205416156110345750565b604460376104e8926104c0601161043361104d33611146565b9361127f565b80600052600060205260406000206001600160a01b03831660005260205260ff60406000205416611082575050565b80600052600060205260406000206001600160a01b038316600052602052604060002060ff1981541690556001600160a01b03339216907ff6391f5c32d9c69d2a47ea670b442974b53935d1edc7fd64eb21e047a839171b600080a4565b60005b8381106110f35750506000910152565b81810151838201526020016110e3565b67ffffffffffffffff8111610e0f57601f01601f191660200190565b908151811015611130570160200190565b634e487b7160e01b600052603260045260246000fd5b600090611153602a611103565b916111616040519384610e25565b602a835261116f602a611103565b6020840190601f190136823783511561126b5760309053825160011015611257576078602184015350602960005b600182116111f25750506111ae5790565b606460405162461bcd60e51b815260206004820152602060248201527f537472696e67733a20686578206c656e67746820696e73756666696369656e746044820152fd5b9091600f81166010811015611243577f3031323334353637383961626364656600000000000000000000000000000000901a61122e848661111f565b5360041c9180156103e157600019019061119d565b602483634e487b7160e01b81526032600452fd5b80634e487b7160e01b602492526032600452fd5b602482634e487b7160e01b81526032600452fd5b60009061128c6042611103565b9161129a6040519384610e25565b604283526112a86042611103565b6020840190601f190136823783511561126b5760309053825160011015611257576078602184015350604160005b600182116112e75750506111ae5790565b9091600f81166010811015611243577f3031323334353637383961626364656600000000000000000000000000000000901a611323848661111f565b5360041c9180156103e15760001901906112d656fea26469706673582212201c91325452482fba6dc1a3a935e5ebbdcddeb61e8cd8a9c889d89dc51fad17b164736f6c634300081c00332f8788117e7eff1d82e926ec794901d17c78024a50270940304540a733656f0dfc8737ab85eb45125971625a9ebdb75cc78e01d5c1fa80c4c6e5203f47bc4fab17a8e30262c1f919c33056d877a3c22b95c2f5e4dac44683c1c2323cd79fbdb0",
  "linkReferences": {},
  "deployedLinkReferences": {}
}