{
  "_format": "hh-sol-artifact-1",
  "contractName": "MockERC20",
  "sourceName": "contracts/mocks/MockERC20.sol",
  "abi": [
    {
      "inputs": [
        {
          "internalType": "string",
          "name": "name_",
          "type": "string"
        },
        {
          "internalType": "string",
          "name": "symbol_",
          "type": "string"
        },
        {
          "internalType": "uint8",
          "name": "decimals_",
          "type": "uint8"
        }
      ],
      "stateMutability": "nonpayable",
      "type": "constructor"
    },
    {
      "anonymous": false,
      "inputs": [
        {
          "indexed": true,
          "internalType": "address",
          "name": "owner",
          "type": "address"
        },
        {
          "indexed": true,
          "internalType": "address",
          "name": "spender",
          "type": "address"
        },
        {
          "indexed": false,
          "internalType": "uint256",
          "name": "value",
          "type": "uint256"
        }
      ],
      "name": "Approval",
      "type": "event"
    },
    {
      "anonymous": false,
      "inputs": [
        {
          "indexed": true,
          "internalType": "address",
          "name": "from",
          "type": "address"
        },
        {
          "indexed": true,
          "internalType": "address",
          "name": "to",
          "type": "address"
        },
        {
          "indexed": false,
          "internalType": "uint256",
          "name": "value",
          "type": "uint256"
        }
      ],
      "name": "Transfer",
      "type": "event"
    },
    {
      "inputs": [
        {
          "internalType": "address",
          "name": "owner",
          "type": "address"
        },
        {
          "internalType": "address",
          "name": "spender",
          "type": "address"
        }
      ],
      "name": "allowance",
      "outputs": [
        {
          "internalType": "uint256",
          "name": "",
          "type": "uint256"
        }
      ],
      "stateMutability": "view",
      "type": "function"
    },
    {
      "inputs": [
        {
          "internalType": "address",
          "name": "spender",
          "type": "address"
        },
        {
          "internalType": "uint256",
          "name": "amount",
          "type": "uint256"
        }
      ],
      "name": "approve",
      "outputs": [
        {
          "internalType": "bool",
          "name": "",
          "type": "bool"
        }
      ],
      "stateMutability": "nonpayable",
      "type": "function"
    },
    {
      "inputs": [
        {
          "internalType": "address",
          "name": "account",
          "type": "address"
        }
      ],
      "name": "balanceOf",
      "outputs": [
        {
          "internalType": "uint256",
          "name": "",
          "type": "uint256"
        }
      ],
      "stateMutability": "view",
      "type": "function"
    },
    {
      "inputs": [],
      "name": "decimals",
      "outputs": [
        {
          "internalType": "uint8",
          "name": "",
          "type": "uint8"
        }
      ],
      "stateMutability": "view",
      "type": "function"
    },
    {
      "inputs": [
        {
          "internalType": "address",
          "name": "spender",
          "type": "address"
        },
        {
          "internalType": "uint256",
          "name": "subtractedValue",
          "type": "uint256"
        }
      ],
      "name": "decreaseAllowance",
      "outputs": [
        {
          "internalType": "bool",
          "name": "",
          "type": "bool"
        }
      ],
      "stateMutability": "nonpayable",
      "type": "function"
    },
    {
      "inputs": [
        {
          "internalType": "address",
          "name": "spender",
          "type": "address"
        },
        {
          "internalType": "uint256",
          "name": "addedValue",
          "type": "uint256"
        }
      ],
      "name": "increaseAllowance",
      "outputs": [
        {
          "internalType": "bool",
          "name": "",
          "type": "bool"
        }
      ],
      "stateMutability": "nonpayable",
      "type": "function"
    },
    {
      "inputs": [
        {
          "internalType": "address",
          "name": "to",
          "type": "address"
        },
        {
          "internalType": "uint256",
          "name": "amount",
          "type": "uint256"
        }
      ],
      "name": "mint",
      "outputs": [],
      "stateMutability": "nonpayable",
      "type": "function"
    },
    {
      "inputs": [],
      "name": "name",
      "outputs": [
        {
          "internalType": "string",
          "name": "",
          "type": "string"
        }
      ],
      "stateMutability": "view",
      "type": "function"
    },
    {
      "inputs": [],
      "name": "symbol",
      "outputs": [
        {
          "internalType": "string",
          "name": "",
          "type": "string"
        }
      ],
      "stateMutability": "view",
      "type": "function"
    },
    {
      "inputs": [],
      "name": "totalSupply",
      "outputs": [
        {
          "internalType": "uint256",
          "name": "",
          "type": "uint256"
        }
      ],
      "stateMutability": "view",
      "type": "function"
    },
    {
      "inputs": [
        {
          "internalType": "address",
          "name": "to",
          "type": "address"
        },
        {
          "internalType": "uint256",
          "name": "amount",
          "type": "uint256"
        }
      ],
      "name": "transfer",
      "outputs": [
        {
          "internalType": "bool",
          "name": "",
          "type": "bool"
        }
      ],
      "stateMutability": "nonpayable",
      "type": "function"
    },
    {
      "inputs": [
        {
          "internalType": "address",
          "name": "from",
          "type": "address"
        },
        {
          "internalType": "address",
          "name": "to",
          "type": "address"
        },
        {
          "internalType": "uint256",
          "name": "amount",
          "type": "uint256"
        }
      ],
      "name": "transferFrom",
      "outputs": [
        {
          "internalType": "bool",
          "name": "",
          "type": "bool"
        }
      ],
      "stateMutability": "nonpayable",
      "type": "function"
    }
  ],
  "bytecode": "0x60a06040523461034457610e1e8038038061001981610349565b9283398101906060818303126103445780516001600160401b038111610344578261004591830161036e565b60208201519092906001600160401b0381116103445760409161006991840161036e565b91015160ff811681036103445782516001600160401b03811161024d57600354600181811c9116801561033a575b602082101461022d57601f81116102d5575b506020601f821160011461026e5781929394600092610263575b50508160011b916000199060031b1c1916176003555b81516001600160401b03811161024d57600454600181811c91168015610243575b602082101461022d57601f81116101c8575b50602092601f82116001146101635792819293600092610158575b50508160011b916000199060031b1c1916176004555b608052604051610a4490816103da8239608051816104750152f35b015190503880610127565b601f198216936004600052806000209160005b8681106101b05750836001959610610197575b505050811b0160045561013d565b015160001960f88460031b161c19169055388080610189565b91926020600181928685015181550194019201610176565b60046000527f8a35acfbc15ff81a39ae7d344fd709f28e8600b4aa8c65c6b64bfe7fe36bd19b601f830160051c81019160208410610223575b601f0160051c01905b818110610217575061010c565b6000815560010161020a565b9091508190610201565b634e487b7160e01b600052602260045260246000fd5b90607f16906100fa565b634e487b7160e01b600052604160045260246000fd5b0151905038806100c3565b601f198216906003600052806000209160005b8181106102bd575095836001959697106102a4575b505050811b016003556100d9565b015160001960f88460031b161c19169055388080610296565b9192602060018192868b015181550194019201610281565b60036000527fc2575a0e9e593c00f959f8c92f12db2869c3395a3b0502d05e2516446f71f85b601f830160051c81019160208410610330575b601f0160051c01905b81811061032457506100a9565b60008155600101610317565b909150819061030e565b90607f1690610097565b600080fd5b6040519190601f01601f191682016001600160401b0381118382101761024d57604052565b81601f82011215610344578051906001600160401b03821161024d5761039d601f8301601f1916602001610349565b92828452602083830101116103445760005b8281106103c457505060206000918301015290565b806020809284010151828287010152016103af56fe608080604052600436101561001357600080fd5b60003560e01c90816306fdde03146105a457508063095ea7b31461057e57806318160ddd1461056057806323b872dd14610499578063313ce5671461045b578063395093511461040857806340c10f191461034b57806370a082311461031157806395d89b41146101f0578063a457c2d714610131578063a9059cbb146101005763dd62ed3e146100a357600080fd5b346100fb5760403660031901126100fb576100bc6106c0565b6001600160a01b036100cc6106d6565b911660005260016020526001600160a01b03604060002091166000526020526020604060002054604051908152f35b600080fd5b346100fb5760403660031901126100fb5761012661011c6106c0565b6024359033610849565b602060405160018152f35b346100fb5760403660031901126100fb5761014a6106c0565b6024359033600052600160205260406000206001600160a01b03821660005260205260406000205491808310610186576101269203903361070f565b608460405162461bcd60e51b815260206004820152602560248201527f45524332303a2064656372656173656420616c6c6f77616e63652062656c6f7760448201527f207a65726f0000000000000000000000000000000000000000000000000000006064820152fd5b346100fb5760003660031901126100fb5760405160006004548060011c90600181168015610307575b6020831081146102f3578285529081156102d75750600114610280575b50819003601f01601f191681019067ffffffffffffffff82118183101761026a5761026682918260405282610677565b0390f35b634e487b7160e01b600052604160045260246000fd5b905060046000527f8a35acfbc15ff81a39ae7d344fd709f28e8600b4aa8c65c6b64bfe7fe36bd19b6000905b8282106102c157506020915082010182610236565b60018160209254838588010152019101906102ac565b90506020925060ff191682840152151560051b82010182610236565b602484634e487b7160e01b81526022600452fd5b91607f1691610219565b346100fb5760203660031901126100fb576001600160a01b036103326106c0565b1660005260006020526020604060002054604051908152f35b346100fb5760403660031901126100fb576103646106c0565b6001600160a01b031660243581156103c4577fddf252ad1be2c89b69c2b068fc378daa952ba7f163c4a11628f55a4df523b3ef6020826103a86000946002546106ec565b60025584845283825260408420818154019055604051908152a3005b606460405162461bcd60e51b815260206004820152601f60248201527f45524332303a206d696e7420746f20746865207a65726f2061646472657373006044820152fd5b346100fb5760403660031901126100fb576101266104246106c0565b33600052600160205260406000206001600160a01b038216600052602052610454604060002060243590546106ec565b903361070f565b346100fb5760003660031901126100fb57602060405160ff7f0000000000000000000000000000000000000000000000000000000000000000168152f35b346100fb5760603660031901126100fb576104b26106c0565b6104ba6106d6565b604435906001600160a01b038316600052600160205260406000206001600160a01b033316600052602052604060002054926000198403610500575b6101269350610849565b82841061051c57610517836101269503338361070f565b6104f6565b606460405162461bcd60e51b815260206004820152601d60248201527f45524332303a20696e73756666696369656e7420616c6c6f77616e63650000006044820152fd5b346100fb5760003660031901126100fb576020600254604051908152f35b346100fb5760403660031901126100fb5761012661059a6106c0565b602435903361070f565b346100fb5760003660031901126100fb5760006003548060011c9060018116801561066d575b6020831081146102f3578285529081156102d757506001146106165750819003601f01601f191681019067ffffffffffffffff82118183101761026a5761026682918260405282610677565b905060036000527fc2575a0e9e593c00f959f8c92f12db2869c3395a3b0502d05e2516446f71f85b6000905b82821061065757506020915082010182610236565b6001816020925483858801015201910190610642565b91607f16916105ca565b91909160208152825180602083015260005b8181106106aa575060409293506000838284010152601f8019910116010190565b8060208092870101516040828601015201610689565b600435906001600160a01b03821682036100fb57565b602435906001600160a01b03821682036100fb57565b919082018092116106f957565b634e487b7160e01b600052601160045260246000fd5b6001600160a01b03169081156107e0576001600160a01b03169182156107765760207f8c5be1e5ebec7d5bd14f71427d1e84f3dd0314c0f7b2291e5b200ac8c7c3b925918360005260018252604060002085600052825280604060002055604051908152a3565b608460405162461bcd60e51b815260206004820152602260248201527f45524332303a20617070726f766520746f20746865207a65726f20616464726560448201527f73730000000000000000000000000000000000000000000000000000000000006064820152fd5b608460405162461bcd60e51b8152602060048201526024808201527f45524332303a20617070726f76652066726f6d20746865207a65726f2061646460448201527f72657373000000000000000000000000000000000000000000000000000000006064820152fd5b6001600160a01b03169081156109a4576001600160a01b031691821561093a578160005260006020526040600020548181106108d057817fddf252ad1be2c89b69c2b068fc378daa952ba7f163c4a11628f55a4df523b3ef9260209285600052600084520360406000205584600052600082526040600020818154019055604051908152a3565b608460405162461bcd60e51b815260206004820152602660248201527f45524332303a207472616e7366657220616d6f756e742065786365656473206260448201527f616c616e636500000000000000000000000000000000000000000000000000006064820152fd5b608460405162461bcd60e51b815260206004820152602360248201527f45524332303a207472616e7366657220746f20746865207a65726f206164647260448201527f65737300000000000000000000000000000000000000000000000000000000006064820152fd5b608460405162461bcd60e51b815260206004820152602560248201527f45524332303a207472616e736665722066726f6d20746865207a65726f20616460448201527f64726573730000000000000000000000000000000000000000000000000000006064820152fdfea2646970667358221220f23347808716a2f497543b96a82785edf95ff063aa1df46081b84a6a72b5100164736f6c634300081c0033",
  "linkReferences": {},
  "deployedLinkReferences": {}
}